:060000000A128A110E280D
:10000800FE00030EF4000408F5000A08F6000A12C0
:100018008A1167290A128A11112883133030FD00CA
:100028000130FE00BD30FF00203084000A128A1122
:10003800AE210A128A11BE01BF01C001C101F70138
:10004800F801F901FA0183010A128A11942883122E
:100058000313B601B11F312832283928B009B10974
:10006800B00A0319B10AB601B60AB31F3C283D28E5
:100078004628B209B309B20A0319B30A0130B40019
:100088003408B606B701B8013008310403194D2801
:100098004E288528B501B50A5C2801300310B00D3B
:1000A800B10DFF3E031D52280130B4003408B507D6
:1000B800B11F5F286028512801300310B70DB80D13
:1000C800FF3E031D612831083302031D6D283008E7
:1000D8003202031C7028712878283008B2023108CF
:1000E800031CB303B302371401300310B10CB00C76
:1000F800FF3E031D79280130B502031D8428852899
:1001080060283608031989288A288F28B709B8096A
:10011800B70A0319B80A3808B1003708B000080050
:100128000A128A11F4200A128A11831203139F14E7
:10013800BF01BE01C101C0010618A328A428A62832
:10014800C101C10A061CA928AA28B4284103031D15
:10015800AE28AF28B4280130BD003D08BF07C10153
:100168008618B728B828BA28C001C00A861CBD2836
:10017800BE28C6284003031DC228C328C62801304C
:10018800BF02C0019F18C928CA28CF281F08C33931
:1001980014389F009F143F0885003E080A128A11F0
:1001A800CD210A128A1183120313BD003D08FA00FB
:1001B8003E080A128A118E210A128A118312031329
:1001C800BD003D08F9003E083F020318EC28ED2861
:1001D800EF288616A0288612A0280A128A110E284F
:1001E80010308316031788008901831603138501CD
:1001F80003308600870188010130890081130330AC
:1002080095008312031386018501870188018901FE
:100218007030831603138F040F1481128111011596
:10022800811401143C3083120313810083160313D5
:100238009F131F129F12831203131F083F39403860
:100248009F001F08C33914389F001F1420308312E1
:100258000313B000B00B2E2900000B118B1683126C
:1002680003130C13831603130C170B178B170800B3
:10027800F2000B1D4029412966293C3083120313E3
:1002880081005D2987017208203E840083130008DD
:10029800880007140130F1007108F8076529870103
:1002A8007008203E84008313000888008714F80132
:1002B80065297808003A03194629013A0319532990
:1002C80065290B110800831203130C1F6C296D2973
:1002D8007B291F0CF300730C0F39053A031D752990
:1002E80076297A291E08F3007308BE000C137908D2
:1002F800F3007308F0007A080A128A113C210A12E6
:100308008A1176088A0075088400740E8300FE0E30
:100318007E0E090083120313BC001030B0000030B9
:10032800B1003C08B900BA013908B2003A08B30074
:100338000A128A112B200A128A1183120313300819
:100348000F39BB003B08F900790808007E088A00CD
:100358007F0882000A128A11AA210A128A118000D3
:10036800840A04087D0603190034FF0A0319FE0AEB
:10037800AE293F3406345B344F3466346D347D34F3
:1003880007347F346F3477347C3439345E347934CD
:10039800713483120313B10031080F39B0003008EB
:0603A800FA007A080800CB
:08400000FF3FFF3FFF3FFF3FC0
:04400E00D420FF3F7C
:00000001FF
